:100000000C942A000C9447000C9447000C94470071
:100010000C9447000C9447000C9447000C94470044
:100020000C9447000C9447000C9447000C94470034
:100030000C9447000C942B020C9447000C9447003E
:100040000C9447000C9447000C9447000C94470014
:100050000C94470011241FBECFE5D8E0DEBFCDBF12
:1000600011E0A0E6B0E0E8E1FFE002C005900D92EB
:10007000A230B107D9F711E0A2E0B1E001C01D92B2
:10008000A930B107E1F70E94CD050C948A070C94C2
:100090000000CF9380E090E00E944B058F3F09F075
:1000A00044C080E690E00E94DC028FEF93ECA9E070
:1000B00081509040A040E1F700C000000E94F5028E
:1000C00089E690E00E94DC0281E060E00E94EC02A0
:1000D00090E01DC0809107018130D9F49430C9F0BF
:1000E000109207016091080181E40E94BA0281E444
:1000F00060E10E946D0281E46AE20E94BA026091AE
:1001000008018C2F90E070E00E9443059C2FC92FBE
:10011000CF5F809108018D30E9F69430D9F680E008
:1001200090E063E070E00E944305CF910895CF9383
:10013000DF9380E090E00E944B05833009F043C0DC
:100140000E94F50288E790E00E94DC028FEF93ECBA
:10015000A9E081509040A040E1F700C000000E945B
:10016000F50289E690E00E94DC0281E060E00E94F6
:10017000EC0210920701D0E0C0E0809107018130CD
:10018000D1F4C430C1F0109207016091080181E4FC
:100190000E94BA0281E460E10E946D0281E46AE299
:1001A0000E94BA0280910801ED2FF0E0ED5FFE4F52
:1001B0008083DF5FCF5F809108018D30F1F6C4301E
:1001C000E1F610920801DF91CF910895EF92FF922E
:1001D0000F931F93CF93DF930F2EF3E0EF2EF1E0F9
:1001E000FF2EF02D00E010E0D701CD917D010F5FD3
:1001F0001F4FC8010E944B05D0E0C817D90729F44A
:100200000430110589F781E01AC00E94F50285E8E3
:1002100090E00E94DC0283E667E00E940E038FEF0D
:1002200099E6A8E181509040A040E1F700C00000AD
:100230000E94F50283E667E00E94150380E0DF91EB
:10024000CF911F910F91FF90EF9008950F931F93FF
:10025000CF93DF93C4E9D0E000EA10E016C00E941B
:10026000E600813081F40E94F502CE010E94DC029A
:1002700081E060E00E94EC02C8010E94DC0281E0A3
:100280008093020102C00E94970080910201813098
:1002900031F710920201DF91CF911F910F910895D4
:1002A0008F929F92AF92BF92CF92DF92EF92FF9286
:1002B0000F931F93CF93C0E00F2EF2EE8F2EF0E03E
:1002C0009F2EF02D0CEB10E00F2EF8ECCF2EF0E06F
:1002D000DF2EF02D0F2EF5EDAF2EF0E0BF2EF02D1E
:1002E0000F2EFFEAEF2EF0E0FF2EF02D4FC0809191
:1002F00007018130E1F780910801813399F4109270
:1003000007010E94F502C7010E94DC0281E060E063
:100310000E94EC02C8010E94DC0281E30E945D059C
:10032000CF5F32C08233E1F4109207010E94F502E0
:100330008FEF90E7A2E081509040A040E1F700C02D
:100340000000C6010E94DC0281E060E00E94EC0235
:10035000C5010E94DC0282E30E945D05CF5F14C0EC
:10036000833391F4109207010E94F502C4010E94A8
:10037000DC0281E060E00E94EC02C8010E94DC0225
:1003800083E30E945D05CF5FC13031F080910701AA
:10039000813009F0ACCFAFCFCF911F910F91FF907B
:1003A000EF90DF90CF90BF90AF909F908F90089587
:1003B000EF92FF920F931F93CF93C0E00F2EF8EFB1
:1003C000EF2EF0E0FF2EF02D0FEE10E039C08091FF
:1003D00007018130E1F7809108018F36B9F410925E
:1003E00007010E94F502C8010E94DC028FE60E940C
:1003F0005D05CF5F8FEF94E3ACE081509040A0406B
:10040000E1F700C000000E94F50218C08636B1F482
:10041000109207010E94F502C7010E94DC0286E6E5
:100420000E945D05CF5F8FEF94E3ACE08150904078
:10043000A040E1F700C000000E94F502C13029F0A1
:1004400080910701813019F6C6CFCF911F910F918E
:10045000FF90EF9008951F920F920FB60F92112404
:100460008F9381E0809307018CB1809308018F9175
:100470000F900FBE0F901F90189560E875E280E016
:1004800090E00E94A30508950E94C9050895CF93A6
:10049000DF93EC018881882331F021960E94440289
:1004A00089918823D9F7DF91CF91089582E663E09F
:1004B00041E00E94B2038FE19EE40197F1F700C092
:1004C000000082E663E040E00E94B2038FE19EE418
:1004D0000197F1F700C000000895CF93C62F8BB3AA
:1004E0008F708BBB8BB3962F907F892B8BBB82E653
:1004F00061E040E00E94B2030E9456028BB38F700D
:100500008BBB8BB3C295C07FC82BCBBB82E661E0AF
:1005100040E00E94B2030E945602CF91089582E605
:100520006EE00E94F50481E660EF0E94F50482E629
:1005300062E040E00E94B20381E663E30E946D0244
:1005400081E662E30E946D0281E668E20E946D022C
:1005500081E661E00E946D0281E66EE00E946D021C
:100560008FEF99EFA0E081509040A040E1F700C0EC
:1005700000000895CF93C62F8BB38F708BBB8BB3C6
:10058000962F907F892B8BBB82E661E041E00E9431
:10059000B2030E9456028BB38F708BBB8BB3C29594
:1005A000C07FC82BCBBB82E661E041E00E94B20372
:1005B0000E945602CF910895CF93DF93EC0168819A
:1005C000662339F0219681E60E94BA02699166237A
:1005D000D1F7DF91CF910895882311F4605801C0BD
:1005E000605481E60E946D02089581E661E00E94F8
:1005F0006D0281E66EE00E946D028FEF99EFA0E040
:1006000081509040A040E1F700C00000089590E0C4
:1006100070E041E050E00E942103089590E070E016
:1006200041E050E00E94B203089590E070E040E0A5
:1006300050E00E94B203089590E070E00E94A80488
:100640000895843409F471C0853448F4823499F1F2
:10065000833408F04DC0813409F083C00FC0823666
:1006600051F1833620F4813609F07BC007C0833610
:1006700009F43EC0843609F074C057C0413069F4B3
:100680002AB381E090E0AC0102C0440F551F6A9587
:10069000E2F7BA01622B6ABB08952AB381E090E0C9
:1006A000AC0102C0440F551F6A95E2F7BA0160958C
:1006B00062236ABB0895413069F427B381E090E07A
:1006C000AC0102C0440F551F6A95E2F7BA01622BD4
:1006D00067BB089527B381E090E0AC0102C0440FEE
:1006E000551F6A95E2F7BA016095622367BB0895CA
:1006F000413069F424B381E090E0AC0102C0440FC2
:10070000551F6A95E2F7BA01622B64BB089524B3C2
:1007100081E090E0AC0102C0440F551F6A95E2F7FA
:10072000BA016095622364BB0895413069F421B336
:1007300081E090E0AC0102C0440F551F6A95E2F7DA
:10074000BA01622B61BB089521B381E090E0AC0156
:1007500002C0440F551F6A95E2F7BA016095622303
:1007600061BB0895843409F471C0853448F482343F
:1007700099F1833408F04DC0813409F083C00FC073
:10078000823651F1833620F4813609F07BC007C0F0
:10079000833609F43EC0843609F074C057C0413036
:1007A00069F42BB381E090E0AC0102C0440F551F07
:1007B0006A95E2F7BA01622B6BBB08952BB381E017
:1007C00090E0AC0102C0440F551F6A95E2F7BA01F0
:1007D000609562236BBB0895413069F428B381E0D2
:1007E00090E0AC0102C0440F551F6A95E2F7BA01D0
:1007F000622B68BB089528B381E090E0AC0102C091
:10080000440F551F6A95E2F7BA016095622368BBF1
:100810000895413069F425B381E090E0AC0102C055
:10082000440F551F6A95E2F7BA01622B65BB089524
:1008300025B381E090E0AC0102C0440F551F6A95DA
:10084000E2F7BA016095622365BB0895413069F40F
:1008500022B381E090E0AC0102C0440F551F6A95BD
:10086000E2F7BA01622B62BB089522B381E090E007
:10087000AC0102C0440F551F6A95E2F7BA016095BA
:10088000622362BB0895843409F44EC0853440F479
:10089000823431F18334B0F5813409F057C00EC091
:1008A0008236F1F0833620F4813609F04FC006C05D
:1008B000833641F1843609F049C036C029B381E05E
:1008C00090E0062E02C0880F991F0A94E2F730E0EC
:1008D0008223932302C0959587956A95E2F7089540
:1008E00026B381E090E0062E02C0880F991F0A947B
:1008F000E2F730E08223932302C0959587956A95AD
:10090000E2F7089523B381E090E0062E02C0880F3D
:10091000991F0A94E2F730E08223932302C0959551
:1009200087956A95E2F7089520B381E090E0062E5E
:1009300002C0880F991F0A94E2F730E082239323C4
:1009400002C0959587956A95E2F7089580E008952D
:10095000843409F43DC0853440F48234F9F08334A2
:1009600050F5813409F040C00CC08236B9F08336AE
:1009700018F48136C9F505C08336E9F08436A1F54F
:1009800027C02BB381E090E0AC0102C0440F551F9B
:100990006A95E2F7BA0162276BBB089528B381E03C
:1009A00090E0AC0102C0440F551F6A95E2F7BA010E
:1009B000622768BB089525B381E090E0AC0102C0D6
:1009C000440F551F6A95E2F7BA01622765BB089587
:1009D00022B381E090E0AC0102C0440F551F6A953C
:1009E000E2F7BA01622762BB0895843409F18534C5
:1009F00038F48234A9F08334B8F48134E1F40CC0C3
:100A0000823671F0833618F48136A9F405C0833636
:100A100059F0843681F40CC08AB3682B6ABB089500
:100A200087B3682B67BB089584B3682B64BB0895B4
:100A300081B3682B61BB0895843409F1853438F49F
:100A40008234A9F08334B8F48134E1F40CC08236E6
:100A500071F0833618F48136A9F405C0833659F055
:100A6000843681F40CC08BB3682B6BBB089588B3BC
:100A7000682B68BB089585B3682B65BB089582B366
:100A8000682B62BB0895E199FECF9FBB8EBB6DBB07
:100A9000E29AE19A0895E199FECF9FBB8EBBE09A5E
:100AA0008DB3089580E18DB9689A699A7098BD9A5E
:100AB000BC9ABF9AC49A6E9A0895C4988FB9779BCE
:100AC000FECFC49A089583B7886083BF83B78F7BB6
:100AD00083BF88E98CBF789489B7826089BF83B768
:100AE000816083BF83B7846083BF83B78D7F83BFFB
:100AF00008958FB581608FBD8FB580628FBD8FEFF8
:100B000088BD84E690E064E070E041E050E00E943F
:100B100021038EB585608EBD0895682F70E080E05A
:100B200090E00E94790620E030E048EC52E40E9418
:100B3000E30520E030E04FE753E40E9405070E9400
:100B40004B0668BD0895DC01CB01880F991FAA1FD1
:100B5000BB1F880F991FAA1FBB1F9C01AD01220F4D
:100B6000331F441F551F220F331F441F551F60E0C2
:100B700074E284EF90E00E9468072150304029B968
:100B800030BD86E880BD80E88AB98AB188618AB9BB
:100B900008955D9BFECF8CB908950E9452050E9476
:100BA0008F020E943D0283E467E00E94070378946D
:100BB0000E9449000E9497000E9426010E94500155
:100BC0000E94D801F9CF0CD0E6C0DED040F0D5D0DD
:100BD00030F021F45F3F19F0C7C0511110C1CAC0F5
:100BE000EBD098F39923C9F35523B1F3951B550B1B
:100BF000BB27AA2762177307840738F09F5F5F4FF0
:100C0000220F331F441FAA1FA9F333D00E2E3AF030
:100C1000E0E830D091505040E695001CCAF729D04A
:100C2000FE2F27D0660F771F881FBB1F2617370799
:100C30004807AB07B0E809F0BB0B802DBF01FF27C9
:100C400093585F4F2AF09E3F510568F08DC0D7C082
:100C50005F3FECF3983EDCF3869577956795B79503
:100C6000F7959F5FC9F7880F911D9695879597F91E
:100C70000895E1E0660F771F881FBB1F6217730797
:100C80008407BA0720F0621B730B840BBA0BEE1FAC
:100C900088F7E095089598D088F09F5790F0B92F85
:100CA0009927B751A0F0D1F0660F771F881F991FC1
:100CB0001AF0BA95C9F712C0B13081F09FD0B1E0F7
:100CC00008959CC0672F782F8827B85F39F0B93F07
:100CD000CCF3869577956795B395D9F73EF49095C3
:100CE0008095709561957F4F8F4F9F4F0895E89441
:100CF00009C097FB3EF490958095709561957F4F64
:100D00008F4F9F4F9923A9F0F92F96E9BB27939511
:100D1000F695879577956795B795F111F8CFFAF421
:100D2000BB0F11F460FF1BC06F5F7F4F8F4F9F4F52
:100D300016C0882311F096E911C0772321F09EE8B0
:100D4000872F762F05C0662371F096E8862F70E016
:100D500060E02AF09A95660F771F881FDAF7880FF0
:100D60009695879597F9089597F99F6780E870E0C1
:100D700060E008959FEF80EC089500240A94161611
:100D8000170618060906089500240A941216130679
:100D9000140605060895092E0394000C11F4882307
:100DA00052F0BB0F40F4BF2B11F460FF04C06F5F23
:100DB0007F4F8F4F9F4F089557FD9058440F551FF9
:100DC00059F05F3F71F04795880F97FB991F61F0CD
:100DD0009F3F79F087950895121613061406551F44
:100DE000F2CF4695F1DF08C0161617061806991FB0
:100DF000F1CF86957105610508940895E894BB27A5
:100E000066277727CB0197F908950BD0C4CFB5DFBC
:100E100028F0BADF18F0952309F0A6CFABCF112444
:100E2000EECFCADFA0F3959FD1F3950F50E0551F89
:100E3000629FF001729FBB27F00DB11D639FAA272F
:100E4000F00DB11DAA1F649F6627B00DA11D661F7E
:100E5000829F2227B00DA11D621F739FB00DA11D9F
:100E6000621F839FA00D611D221F749F3327A00D59
:100E7000611D231F849F600D211D822F762F6A2FF5
:100E800011249F5750408AF0E1F088234AF0EE0F7A
:100E9000FF1FBB1F661F771F881F91505040A9F787
:100EA0009E3F510570F060CFAACF5F3FECF3983EB4
:100EB000DCF3869577956795B795F795E7959F5FEE
:100EC000C1F7FE2B880F911D9695879597F9089588
:100ED000A1E21A2EAA1BBB1BFD010DC0AA1FBB1F3E
:100EE000EE1FFF1FA217B307E407F50720F0A21BB0
:100EF000B30BE40BF50B661F771F881F991F1A941D
:100F000069F760957095809590959B01AC01BD0146
:080F1000CF010895F894FFCF12
:100F180057656C636F6D652100456E74657220506E
:100F2800617373776F72640057656C636F6D6520CA
:100F3800536972210057726F6E672050617373771F
:100F48006F726400486F6D6520526F6F6D7321007A
:100F5800312D523120322D523220332D523300524E
:100F68004F4F4D2031204C69676874004F2D4F4E0C
:100F78002020462D4F464600524F4F4D2032204CE0
:100F880069676874004F2D4F4E202020462D4F462C
:100F98004600524F4F4D2033204C69676874004C0F
:100FA800696768745F4F6E004C69676874204F66A4
:020FB8006600D1
:00000001FF
