S0170000536D617274486F6D655F536C6176652E7372656323
S11300000C942A000C9447000C9447000C9447006D
S11300100C9447000C9447000C9447000C94470040
S11300200C9447000C9447000C9447000C94470030
S11300300C9447000C9447000C9447000C94470020
S11300400C9447000C9447000C9447000C94470010
S11300500C94470011241FBECFE5D8E0DEBFCDBF0E
S113006010E0A0E6B0E0E6E4FBE002C005900D92EB
S1130070A036B107D9F710E0A0E6B0E001C01D92A8
S1130080A236B107E1F70E94C4030C94A1050C94B5
S1130090000082E690E063E070E041E050E00E94FE
S11300A0EC018FE19EE40197F1F700C0000082E6C5
S11300B090E063E070E040E050E00E94EC018FE1EA
S11300C09EE40197F1F700C000000895CF93C62F76
S11300D08BB38F708BBB8BB3962F907F892B8BBB8D
S11300E082E690E061E070E040E050E00E94EC01C4
S11300F00E9449008BB38F708BBB8BB3C295C07FBA
S1130100C82BCBBB82E690E061E070E040E050E0B9
S11301100E94EC010E944900CF91089582E690E08C
S11301206EE070E00E942F0381E690E060EF70E0E3
S11301300E942F0382E690E062E070E040E050E02D
S11301400E94EC0181E663E30E94660081E662E3BB
S11301500E94660081E668E20E94660081E661E032
S11301600E94660081E66FE00E9466008FEF99EFBF
S1130170A0E081509040A040E1F700C00000089545
S1130180882311F4605801C0605481E60E9466001F
S1130190089581E661E00E94660081E66FE00E94B6
S11301A066008FEF99EFA0E081509040A040E1F706
S11301B000C000000895809161008F5F809361000A
S11301C08031E9F480916000813071F48FEF91EE19
S11301D0A4E081509040A040E1F700C000000E94DC
S11301E0C90010926000089581E060E00E94C000A0
S11301F010926100809160008F5F80936000089589
S1130200CF93C62F8BB38F708BBB8BB3962F907FFE
S1130210892B8BBB82E690E061E070E041E050E026
S11302200E94EC010E9449008BB38F708BBB8BB38F
S1130230C295C07FC82BCBBB82E690E061E070E042
S113024041E050E00E94EC010E9449000E94DB0062
S1130250CF910895CF93DF93EC016881662339F041
S1130260219681E60E94000169916623D1F7DF910E
S1130270CF91089590E070E041E050E00E945B016E
S1130280089590E070E041E050E00E94EC01089590
S113029090E070E040E050E00E94EC01089590E0AE
S11302A070E00E94E2020895379A319A329A339AA2
S11302B00895369A0895843409F471C0853448F455
S11302C0823499F1833408F04DC0813409F083C03D
S11302D00FC0823651F1833620F4813609F07BC099
S11302E007C0833609F43EC0843609F074C057C091
S11302F0413069F42AB381E090E0AC0102C0440FBC
S1130300551F6A95E2F7BA01622B6ABB08952AB3B6
S113031081E090E0AC0102C0440F551F6A95E2F7FA
S1130320BA01609562236ABB0895413069F427B32A
S113033081E090E0AC0102C0440F551F6A95E2F7DA
S1130340BA01622B67BB089527B381E090E0AC014A
S113035002C0440F551F6A95E2F7BA016095622303
S113036067BB0895413069F424B381E090E0AC01A7
S113037002C0440F551F6A95E2F7BA01622B64BBB1
S1130380089524B381E090E0AC0102C0440F551FEE
S11303906A95E2F7BA016095622364BB089541301F
S11303A069F421B381E090E0AC0102C0440F551F11
S11303B06A95E2F7BA01622B61BB089521B381E02B
S11303C090E0AC0102C0440F551F6A95E2F7BA01F0
S11303D06095622361BB0895843409F471C0853447
S11303E048F4823499F1833408F04DC0813409F023
S11303F083C00FC0823651F1833620F4813609F070
S11304007BC007C0833609F43EC0843609F074C04B
S113041057C0413069F42BB381E090E0AC0102C0D5
S1130420440F551F6A95E2F7BA01622B6BBB08951E
S11304302BB381E090E0AC0102C0440F551F6A95D4
S1130440E2F7BA01609562236BBB0895413069F409
S113045028B381E090E0AC0102C0440F551F6A95B7
S1130460E2F7BA01622B68BB089528B381E090E0FB
S1130470AC0102C0440F551F6A95E2F7BA016095BA
S1130480622368BB0895413069F425B381E090E0AC
S1130490AC0102C0440F551F6A95E2F7BA01622B02
S11304A065BB089525B381E090E0AC0102C0440F20
S11304B0551F6A95E2F7BA016095622365BB0895FA
S11304C0413069F422B381E090E0AC0102C0440FF2
S11304D0551F6A95E2F7BA01622B62BB089522B3F5
S11304E081E090E0AC0102C0440F551F6A95E2F729
S11304F0BA016095622362BB0895843409F44EC046
S1130500853440F4823431F18334B0F5813409F018
S113051057C00EC08236F1F0833620F4813609F0DC
S11305204FC006C0833641F1843609F049C036C055
S113053029B381E090E0062E02C0880F991F0A9427
S1130540E2F730E08223932302C0959587956A955C
S1130550E2F7089526B381E090E0062E02C0880FEA
S1130560991F0A94E2F730E08223932302C0959501
S113057087956A95E2F7089523B381E090E0062E0B
S113058002C0880F991F0A94E2F730E08223932374
S113059002C0959587956A95E2F7089520B381E0A6
S11305A090E0062E02C0880F991F0A94E2F730E00B
S11305B08223932302C0959587956A95E2F708955F
S11305C080E00895843409F43DC0853440F48234D5
S11305D0F9F0833450F5813409F040C00CC0823600
S11305E0B9F0833618F48136C9F505C08336E9F0CD
S11305F08436A1F527C02BB381E090E0AC0102C0A2
S1130600440F551F6A95E2F7BA0162276BBB089540
S113061028B381E090E0AC0102C0440F551F6A95F5
S1130620E2F7BA01622768BB089525B381E090E040
S1130630AC0102C0440F551F6A95E2F7BA01622764
S113064065BB089522B381E090E0AC0102C0440F81
S1130650551F6A95E2F7BA01622762BB0895843494
S1130660D9F0853438F4823499F0833498F48134A1
S1130670A1F40CC0823661F0833618F4813669F433
S113068005C0833639F0843641F406C06ABB089548
S113069067BB089564BB089561BB08958434D9F0A1
S11306A0853438F4823499F0833498F48134A1F495
S11306B00CC0823661F0833618F4813669F405C0C3
S11306C0833639F0843641F406C06BBB089568BBA9
S11306D0089565BB089562BB0895E199FECF9FBB61
S11306E08EBB6DBBE29AE19A0895E199FECF9FBB60
S11306F08EBBE09A8DB308956C986E9ABE9A089555
S1130700779BFECF8FB1089583B7886083BF83B78B
S11307108F7B83BF88E98CBF789489B7826089BF57
S113072083B7816083BF83B7846083BF83B78D7FC2
S113073083BF08958FB581608FBD8FB580628FBDF3
S11307408FEF88BD84E690E064E070E041E050E023
S11307500E945B018EB585608EBD0895682F70E0A0
S113076080E090E00E94B20420E030E048EC52E4E3
S11307700E941C0420E030E04FE753E40E943E0551
S11307800E94840468BD08950E947C0381E490E083
S113079060E070E00E943A0181E490E061E070E082
S11307A00E943A0181E490E062E070E00E943A0124
S11307B00E9480038133A1F40E9480038F3639F4B0
S11307C081E490E060E070E00E944101F1CF863660
S11307D079F781E490E060E070E00E944801E8CF9E
S11307E08233A1F40E9480038F3639F481E490E0CF
S11307F061E070E00E944101DBCF8636C9F681E4F6
S113080090E061E070E00E944801D2CF833381F62A
S11308100E9480038F3639F481E490E062E070E056
S11308200E944101C5CF863619F681E490E062E06A
S113083070E00E944801BCCF0CD0E6C0DED040F08E
S1130840D5D030F021F45F3F19F0C7C0511110C169
S1130850CAC0EBD098F39923C9F35523B1F3951B80
S1130860550BBB27AA2762177307840738F09F5FCD
S11308705F4F220F331F441FAA1FA9F333D00E2E3C
S11308803AF0E0E830D091505040E695001CCAF7A9
S113089029D0FE2F27D0660F771F881FBB1F26176E
S11308A037074807AB07B0E809F0BB0B802DBF0141
S11308B0FF2793585F4F2AF09E3F510568F08DC083
S11308C0D7C05F3FECF3983EDCF386957795679548
S11308D0B795F7959F5FC9F7880F911D96958795F2
S11308E097F90895E1E0660F771F881FBB1F621711
S11308F073078407BA0720F0621B730B840BBA0BCF
S1130900EE1F88F7E095089598D088F09F5790F0EF
S1130910B92F9927B751A0F0D1F0660F771F881F20
S1130920991F1AF0BA95C9F712C0B13081F09FD05F
S1130930B1E008959CC0672F782F8827B85F39F0FD
S1130940B93FCCF3869577956795B395D9F73EF47F
S113095090958095709561957F4F8F4F9F4F089527
S1130960E89409C097FB3EF4909580957095619545
S11309707F4F8F4F9F4F9923A9F0F92F96E9BB27FB
S11309809395F695879577956795B795F111F8CF77
S1130990FAF4BB0F11F460FF1BC06F5F7F4F8F4FE2
S11309A09F4F16C0882311F096E911C0772321F0D8
S11309B09EE8872F762F05C0662371F096E8862F70
S11309C070E060E02AF09A95660F771F881FDAF7C7
S11309D0880F9695879597F9089597F99F6780E80A
S11309E070E060E008959FEF80EC089500240A947D
S11309F01616170618060906089500240A941216F6
S1130A001306140605060895092E0394000C11F428
S1130A10882352F0BB0F40F4BF2B11F460FF04C0D5
S1130A206F5F7F4F8F4F9F4F089557FD9058440F2E
S1130A30551F59F05F3F71F04795880F97FB991F39
S1130A4061F09F3F79F087950895121613061406F6
S1130A50551FF2CF4695F1DF08C016161706180683
S1130A60991FF1CF86957105610508940895E8945E
S1130A70BB2766277727CB0197F908950BD0C4CFFE
S1130A80B5DF28F0BADF18F0952309F0A6CFABCF75
S1130A901124EECFCADFA0F3959FD1F3950F50E058
S1130AA0551F629FF001729FBB27F00DB11D639F1C
S1130AB0AA27F00DB11DAA1F649F6627B00DA11DC2
S1130AC0661F829F2227B00DA11D621F739FB00D68
S1130AD0A11D621F839FA00D611D221F749F3327D8
S1130AE0A00D611D231F849F600D211D822F762F71
S1130AF06A2F11249F5750408AF0E1F088234AF06E
S1130B00EE0FFF1FBB1F661F771F881F91505040B9
S1130B10A9F79E3F510570F060CFAACF5F3FECF379
S1130B20983EDCF3869577956795B795F795E795A5
S1130B309F5FC1F7FE2B880F911D9695879597F9B6
S1090B400895F894FFCFB4
S9030000FC
